{"contracts/src/example1/admin/Admin.sol":{"Admin":{"abi":[{"inputs":[],"name":"ACLAdminAlreadyInitialized","type":"error"},{"inputs":[{"internalType":"address","name":"account","type":"address"}],"name":"ACLNotAdmin","type":"error"},{"inputs":[],"name":"functionId","outputs":[{"internalType":"address","name":"","type":"address"}],"stateMutability":"view","type":"function"},{"inputs":[{"internalType":"address","name":"_switchboard","type":"address"}],"name":"initialize","outputs":[],"stateMutability":"nonpayable","type":"function"},{"inputs":[{"internalType":"address","name":"sender","type":"address"}],"name":"isAdmin","outputs":[{"internalType":"bool","name":"","type":"bool"}],"stateMutability":"view","type":"function"},{"inputs":[{"internalType":"address","name":"sender","type":"address"}],"name":"isAllowed","outputs":[{"internalType":"bool","name":"","type":"bool"}],"stateMutability":"view","type":"function"},{"inputs":[{"internalType":"address","name":"sender","type":"address"},{"internalType":"bool","name":"status","type":"bool"}],"name":"setAdmin","outputs":[],"stateMutability":"nonpayable","type":"function"},{"inputs":[{"internalType":"address","name":"sender","type":"address"},{"internalType":"bool","name":"status","type":"bool"}],"name":"setAllowed","outputs":[],"stateMutability":"nonpayable","type":"function"},{"inputs":[{"internalType":"address","name":"_functionId","type":"address"}],"name":"setFunctionId","outputs":[],"stateMutability":"nonpayable","type":"function"},{"inputs":[{"internalType":"address","name":"_switchboard","type":"address"}],"name":"setSwitchboard","outputs":[],"stateMutability":"nonpayable","type":"function"},{"inputs":[],"name":"switchboard","outputs":[{"internalType":"address","name":"","type":"address"}],"stateMutability":"view","type":"function"}],"evm":{"bytecode":{"linkReferences":{},"object":"608060405234801561001057600080fd5b506105c6806100206000396000f3fe608060405234801561001057600080fd5b50600436106100935760003560e01c80634b0bddd2116100665780634b0bddd214610108578063ad224b071461011b578063babcc5391461012e578063c4d66de814610141578063f84e198f1461015457600080fd5b806318ccf0991461009857806324d7806c146100bd5780632a8f9607146100e05780634697f05d146100f5575b600080fd5b6100a061015c565b6040516001600160a01b0390911681526020015b60405180910390f35b6100d06100cb366004610512565b610194565b60405190151581526020016100b4565b6100f36100ee366004610512565b6101a5565b005b6100f3610103366004610534565b61020e565b6100f3610116366004610534565b610280565b6100f3610129366004610512565b610292565b6100d061013c366004610512565b6102f6565b6100f361014f366004610512565b610301565b6100a0610364565b600061018f7fec717508ea0d3d9f736b2da60dd18c1864c124710105fae8984f76b69eb3c826546001600160a01b031690565b905090565b600061019f82610397565b92915050565b6101ae33610397565b6101d1576040516275103f60e11b81523360048201526024015b60405180910390fd5b7fec717508ea0d3d9f736b2da60dd18c1864c124710105fae8984f76b69eb3c82780546001600160a01b0319166001600160a01b03831617905550565b61021733610397565b610235576040516275103f60e11b81523360048201526024016101c8565b6001600160a01b03821660009081527fec717508ea0d3d9f736b2da60dd18c1864c124710105fae8984f76b69eb3c82560205260409020805460ff19168215151790555050565b5050565b6102886103ce565b61027c8282610457565b61029b33610397565b6102b9576040516275103f60e11b81523360048201526024016101c8565b7fec717508ea0d3d9f736b2da60dd18c1864c124710105fae8984f76b69eb3c82680546001600160a01b0319166001600160a01b03831617905550565b600061019f826104a1565b6000805160206105718339815191525460ff161561033257604051637373cb0d60e01b815260040160405180910390fd5b61033a6103ce565b610345336001610457565b6102b9600080516020610571833981519152805460ff19166001179055565b600061018f7fec717508ea0d3d9f736b2da60dd18c1864c124710105fae8984f76b69eb3c827546001600160a01b031690565b60006000805160206105718339815191525b6001600160a01b03909216600090815260019290920160205250604090205460ff1690565b7fc8fcad8db84d3cc18b4c41d551ea0ee66dd599cde068d998e57d5e09332c131c600401546001600160a01b031633146104555760405162461bcd60e51b815260206004820152602260248201527f4c69624469616d6f6e643a204d75737420626520636f6e7472616374206f776e60448201526132b960f11b60648201526084016101c8565b565b6001600160a01b039190911660009081527fec717508ea0d3d9f736b2da60dd18c1864c124710105fae8984f76b69eb3c82460205260409020805460ff1916911515919091179055565b6001600160a01b03811660009081527fec717508ea0d3d9f736b2da60dd18c1864c124710105fae8984f76b69eb3c825602052604081205460ff168061019f57506000805160206105718339815191526103a9565b80356001600160a01b038116811461050d57600080fd5b919050565b60006020828403121561052457600080fd5b61052d826104f6565b9392505050565b6000806040838503121561054757600080fd5b610550836104f6565b91506020830135801515811461056557600080fd5b80915050925092905056feec717508ea0d3d9f736b2da60dd18c1864c124710105fae8984f76b69eb3c823a2646970667358221220af5553e72050ce33d2d13812e6c36b590b7373e70a94064f236c123bd5e06ab164736f6c63430008110033","opcodes":"PUSH1 0x80 PUSH1 0x40 MSTORE CALLVALUE DUP1 ISZERO PUSH2 0x10 JUMPI PUSH1 0x0 DUP1 REVERT JUMPDEST POP PUSH2 0x5C6 DUP1 PUSH2 0x20 PUSH1 0x0 CODECOPY PUSH1 0x0 RETURN INVALID PUSH1 0x80 PUSH1 0x40 MSTORE CALLVALUE DUP1 ISZERO PUSH2 0x10 JUMPI PUSH1 0x0 DUP1 REVERT JUMPDEST POP PUSH1 0x4 CALLDATASIZE LT PUSH2 0x93 JUMPI PUSH1 0x0 CALLDATALOAD PUSH1 0xE0 SHR DUP1 PUSH4 0x4B0BDDD2 GT PUSH2 0x66 JUMPI DUP1 PUSH4 0x4B0BDDD2 EQ PUSH2 0x108 JUMPI DUP1 PUSH4 0xAD224B07 EQ PUSH2 0x11B JUMPI DUP1 PUSH4 0xBABCC539 EQ PUSH2 0x12E JUMPI DUP1 PUSH4 0xC4D66DE8 EQ PUSH2 0x141 JUMPI DUP1 PUSH4 0xF84E198F EQ PUSH2 0x154 JUMPI PUSH1 0x0 DUP1 REVERT JUMPDEST DUP1 PUSH4 0x18CCF099 EQ PUSH2 0x98 JUMPI DUP1 PUSH4 0x24D7806C EQ PUSH2 0xBD JUMPI DUP1 PUSH4 0x2A8F9607 EQ PUSH2 0xE0 JUMPI DUP1 PUSH4 0x4697F05D EQ PUSH2 0xF5 JUMPI JUMPDEST PUSH1 0x0 DUP1 REVERT JUMPDEST PUSH2 0xA0 PUSH2 0x15C JUMP JUMPDEST PUSH1 0x40 MLOAD PUSH1 0x1 PUSH1 0x1 PUSH1 0xA0 SHL SUB SWAP1 SWAP2 AND DUP2 MSTORE PUSH1 0x20 ADD JUMPDEST PUSH1 0x40 MLOAD DUP1 SWAP2 SUB SWAP1 RETURN JUMPDEST PUSH2 0xD0 PUSH2 0xCB CALLDATASIZE PUSH1 0x4 PUSH2 0x512 JUMP JUMPDEST PUSH2 0x194 JUMP JUMPDEST PUSH1 0x40 MLOAD SWAP1 ISZERO ISZERO DUP2 MSTORE PUSH1 0x20 ADD PUSH2 0xB4 JUMP JUMPDEST PUSH2 0xF3 PUSH2 0xEE CALLDATASIZE PUSH1 0x4 PUSH2 0x512 JUMP JUMPDEST PUSH2 0x1A5 JUMP JUMPDEST STOP JUMPDEST PUSH2 0xF3 PUSH2 0x103 CALLDATASIZE PUSH1 0x4 PUSH2 0x534 JUMP JUMPDEST PUSH2 0x20E JUMP JUMPDEST PUSH2 0xF3 PUSH2 0x116 CALLDATASIZE PUSH1 0x4 PUSH2 0x534 JUMP JUMPDEST PUSH2 0x280 JUMP JUMPDEST PUSH2 0xF3 PUSH2 0x129 CALLDATASIZE PUSH1 0x4 PUSH2 0x512 JUMP JUMPDEST PUSH2 0x292 JUMP JUMPDEST PUSH2 0xD0 PUSH2 0x13C CALLDATASIZE PUSH1 0x4 PUSH2 0x512 JUMP JUMPDEST PUSH2 0x2F6 JUMP JUMPDEST PUSH2 0xF3 PUSH2 0x14F CALLDATASIZE PUSH1 0x4 PUSH2 0x512 JUMP JUMPDEST PUSH2 0x301 JUMP JUMPDEST PUSH2 0xA0 PUSH2 0x364 JUMP JUMPDEST PUSH1 0x0 PUSH2 0x18F PUSH32 0xEC717508EA0D3D9F736B2DA60DD18C1864C124710105FAE8984F76B69EB3C826 SLOAD PUSH1 0x1 PUSH1 0x1 PUSH1 0xA0 SHL SUB AND SWAP1 JUMP JUMPDEST SWAP1 POP SWAP1 JUMP JUMPDEST PUSH1 0x0 PUSH2 0x19F DUP3 PUSH2 0x397 JUMP JUMPDEST SWAP3 SWAP2 POP POP JUMP JUMPDEST PUSH2 0x1AE CALLER PUSH2 0x397 JUMP JUMPDEST PUSH2 0x1D1 JUMPI PUSH1 0x40 MLOAD PUSH3 0x75103F PUSH1 0xE1 SHL DUP2 MSTORE CALLER PUSH1 0x4 DUP3 ADD MSTORE PUSH1 0x24 ADD JUMPDEST PUSH1 0x40 MLOAD DUP1 SWAP2 SUB SWAP1 REVERT JUMPDEST PUSH32 0xEC717508EA0D3D9F736B2DA60DD18C1864C124710105FAE8984F76B69EB3C827 DUP1 SLOAD PUSH1 0x1 PUSH1 0x1 PUSH1 0xA0 SHL SUB NOT AND PUSH1 0x1 PUSH1 0x1 PUSH1 0xA0 SHL SUB DUP4 AND OR SWAP1 SSTORE POP JUMP JUMPDEST PUSH2 0x217 CALLER PUSH2 0x397 JUMP JUMPDEST PUSH2 0x235 JUMPI PUSH1 0x40 MLOAD PUSH3 0x75103F PUSH1 0xE1 SHL DUP2 MSTORE CALLER PUSH1 0x4 DUP3 ADD MSTORE PUSH1 0x24 ADD PUSH2 0x1C8 JUMP JUMPDEST PUSH1 0x1 PUSH1 0x1 PUSH1 0xA0 SHL SUB DUP3 AND PUSH1 0x0 SWAP1 DUP2 MSTORE PUSH32 0xEC717508EA0D3D9F736B2DA60DD18C1864C124710105FAE8984F76B69EB3C825 PUSH1 0x20 MSTORE PUSH1 0x40 SWAP1 KECCAK256 DUP1 SLOAD PUSH1 0xFF NOT AND DUP3 ISZERO ISZERO OR SWAP1 SSTORE POP POP JUMP JUMPDEST POP POP JUMP JUMPDEST PUSH2 0x288 PUSH2 0x3CE JUMP JUMPDEST PUSH2 0x27C DUP3 DUP3 PUSH2 0x457 JUMP JUMPDEST PUSH2 0x29B CALLER PUSH2 0x397 JUMP JUMPDEST PUSH2 0x2B9 JUMPI PUSH1 0x40 MLOAD PUSH3 0x75103F PUSH1 0xE1 SHL DUP2 MSTORE CALLER PUSH1 0x4 DUP3 ADD MSTORE PUSH1 0x24 ADD PUSH2 0x1C8 JUMP JUMPDEST PUSH32 0xEC717508EA0D3D9F736B2DA60DD18C1864C124710105FAE8984F76B69EB3C826 DUP1 SLOAD PUSH1 0x1 PUSH1 0x1 PUSH1 0xA0 SHL SUB NOT AND PUSH1 0x1 PUSH1 0x1 PUSH1 0xA0 SHL SUB DUP4 AND OR SWAP1 SSTORE POP JUMP JUMPDEST PUSH1 0x0 PUSH2 0x19F DUP3 PUSH2 0x4A1 JUMP JUMPDEST PUSH1 0x0 DUP1 MLOAD PUSH1 0x20 PUSH2 0x571 DUP4 CODECOPY DUP2 MLOAD SWAP2 MSTORE SLOAD PUSH1 0xFF AND ISZERO PUSH2 0x332 JUMPI PUSH1 0x40 MLOAD PUSH4 0x7373CB0D PUSH1 0xE0 SHL DUP2 MSTORE PUSH1 0x4 ADD PUSH1 0x40 MLOAD DUP1 SWAP2 SUB SWAP1 REVERT JUMPDEST PUSH2 0x33A PUSH2 0x3CE JUMP JUMPDEST PUSH2 0x345 CALLER PUSH1 0x1 PUSH2 0x457 JUMP JUMPDEST PUSH2 0x2B9 PUSH1 0x0 DUP1 MLOAD PUSH1 0x20 PUSH2 0x571 DUP4 CODECOPY DUP2 MLOAD SWAP2 MSTORE DUP1 SLOAD PUSH1 0xFF NOT AND PUSH1 0x1 OR SWAP1 SSTORE JUMP JUMPDEST PUSH1 0x0 PUSH2 0x18F PUSH32 0xEC717508EA0D3D9F736B2DA60DD18C1864C124710105FAE8984F76B69EB3C827 SLOAD PUSH1 0x1 PUSH1 0x1 PUSH1 0xA0 SHL SUB AND SWAP1 JUMP JUMPDEST PUSH1 0x0 PUSH1 0x0 DUP1 MLOAD PUSH1 0x20 PUSH2 0x571 DUP4 CODECOPY DUP2 MLOAD SWAP2 MSTORE JUMPDEST PUSH1 0x1 PUSH1 0x1 PUSH1 0xA0 SHL SUB SWAP1 SWAP3 AND PUSH1 0x0 SWAP1 DUP2 MSTORE PUSH1 0x1 SWAP3 SWAP1 SWAP3 ADD PUSH1 0x20 MSTORE POP PUSH1 0x40 SWAP1 KECCAK256 SLOAD PUSH1 0xFF AND SWAP1 JUMP JUMPDEST PUSH32 0xC8FCAD8DB84D3CC18B4C41D551EA0EE66DD599CDE068D998E57D5E09332C131C PUSH1 0x4 ADD SLOAD PUSH1 0x1 PUSH1 0x1 PUSH1 0xA0 SHL SUB AND CALLER EQ PUSH2 0x455 JUMPI PUSH1 0x40 MLOAD PUSH3 0x461BCD PUSH1 0xE5 SHL DUP2 MSTORE PUSH1 0x20 PUSH1 0x4 DUP3 ADD MSTORE PUSH1 0x22 PUSH1 0x24 DUP3 ADD MSTORE PUSH32 0x4C69624469616D6F6E643A204D75737420626520636F6E7472616374206F776E PUSH1 0x44 DUP3 ADD MSTORE PUSH2 0x32B9 PUSH1 0xF1 SHL PUSH1 0x64 DUP3 ADD MSTORE PUSH1 0x84 ADD PUSH2 0x1C8 JUMP JUMPDEST JUMP JUMPDEST PUSH1 0x1 PUSH1 0x1 PUSH1 0xA0 SHL SUB SWAP2 SWAP1 SWAP2 AND PUSH1 0x0 SWAP1 DUP2 MSTORE PUSH32 0xEC717508EA0D3D9F736B2DA60DD18C1864C124710105FAE8984F76B69EB3C824 PUSH1 0x20 MSTORE PUSH1 0x40 SWAP1 KECCAK256 DUP1 SLOAD PUSH1 0xFF NOT AND SWAP2 ISZERO ISZERO SWAP2 SWAP1 SWAP2 OR SWAP1 SSTORE JUMP JUMPDEST PUSH1 0x1 PUSH1 0x1 PUSH1 0xA0 SHL SUB DUP2 AND PUSH1 0x0 SWAP1 DUP2 MSTORE PUSH32 0xEC717508EA0D3D9F736B2DA60DD18C1864C124710105FAE8984F76B69EB3C825 PUSH1 0x20 MSTORE PUSH1 0x40 DUP2 KECCAK256 SLOAD PUSH1 0xFF AND DUP1 PUSH2 0x19F JUMPI POP PUSH1 0x0 DUP1 MLOAD PUSH1 0x20 PUSH2 0x571 DUP4 CODECOPY DUP2 MLOAD SWAP2 MSTORE PUSH2 0x3A9 JUMP JUMPDEST DUP1 CALLDATALOAD PUSH1 0x1 PUSH1 0x1 PUSH1 0xA0 SHL SUB DUP2 AND DUP2 EQ PUSH2 0x50D JUMPI PUSH1 0x0 DUP1 REVERT JUMPDEST SWAP2 SWAP1 POP JUMP JUMPDEST PUSH1 0x0 PUSH1 0x20 DUP3 DUP5 SUB SLT ISZERO PUSH2 0x524 JUMPI PUSH1 0x0 DUP1 REVERT JUMPDEST PUSH2 0x52D DUP3 PUSH2 0x4F6 JUMP JUMPDEST SWAP4 SWAP3 POP POP POP JUMP JUMPDEST PUSH1 0x0 DUP1 PUSH1 0x40 DUP4 DUP6 SUB SLT ISZERO PUSH2 0x547 JUMPI PUSH1 0x0 DUP1 REVERT JUMPDEST PUSH2 0x550 DUP4 PUSH2 0x4F6 JUMP JUMPDEST SWAP2 POP PUSH1 0x20 DUP4 ADD CALLDATALOAD DUP1 ISZERO ISZERO DUP2 EQ PUSH2 0x565 JUMPI PUSH1 0x0 DUP1 REVERT JUMPDEST DUP1 SWAP2 POP POP SWAP3 POP SWAP3 SWAP1 POP JUMP INVALID 0xEC PUSH18 0x7508EA0D3D9F736B2DA60DD18C1864C12471 ADD SDIV STATICCALL 0xE8 SWAP9 0x4F PUSH23 0xB69EB3C823A2646970667358221220AF5553E72050CE33 0xD2 0xD1 CODESIZE SLT 0xE6 0xC3 PUSH12 0x590B7373E70A94064F236C12 EXTCODESIZE 0xD5 0xE0 PUSH11 0xB164736F6C634300081100 CALLER "},"methodIdentifiers":{"functionId()":"f84e198f","initialize(address)":"c4d66de8","isAdmin(address)":"24d7806c","isAllowed(address)":"babcc539","setAdmin(address,bool)":"4b0bddd2","setAllowed(address,bool)":"4697f05d","setFunctionId(address)":"2a8f9607","setSwitchboard(address)":"ad224b07","switchboard()":"18ccf099"}}}}}