{"contracts/src/example1/receiver/Receiver.sol":{"Receiver":{"abi":[{"inputs":[{"internalType":"address","name":"expected","type":"address"},{"internalType":"address","name":"received","type":"address"}],"name":"SwitchboardCallbackHandler__InvalidFunction","type":"error"},{"inputs":[{"internalType":"address","name":"expected","type":"address"},{"internalType":"address","name":"received","type":"address"}],"name":"SwitchboardCallbackHandler__InvalidSender","type":"error"},{"inputs":[],"name":"SwitchboardCallbackHandler__MissingFunctionId","type":"error"},{"inputs":[{"internalType":"int256","name":"data","type":"int256"},{"internalType":"uint256","name":"timestamp","type":"uint256"}],"name":"callback","outputs":[],"stateMutability":"nonpayable","type":"function"},{"inputs":[],"name":"viewData","outputs":[{"internalType":"int256","name":"","type":"int256"},{"internalType":"uint256","name":"","type":"uint256"}],"stateMutability":"view","type":"function"}],"evm":{"bytecode":{"linkReferences":{},"object":"608060405234801561001057600080fd5b50610358806100206000396000f3fe608060405234801561001057600080fd5b50600436106100365760003560e01c806332d07db61461003b5780637ba0975914610050575b600080fd5b61004e610049366004610300565b610071565b005b61005861020e565b6040805192835260208301919091520160405180910390f35b600061007b610264565b9050336001600160a01b03821681146100bf576040516369de1f3f60e11b81526001600160a01b038084166004830152821660248201526044015b60405180910390fd5b60006100c961029c565b905060143610156100ed57604051630f951bd360e01b815260040160405180910390fd5b60131936013560601c6001600160a01b03821681146101325760405163324ac22160e01b81526001600160a01b038084166004830152821660248201526044016100b6565b600061013c6102cf565b905060006101717fec717508ea0d3d9f736b2da60dd18c1864c124710105fae8984f76b69eb3c827546001600160a01b031690565b6001600160a01b0316036101ba577fec717508ea0d3d9f736b2da60dd18c1864c124710105fae8984f76b69eb3c82780546001600160a01b0319166001600160a01b0383161790555b61020587877f513a0c53e9451dae19196ebc32bce059e6b1f88eab140cb7b23f612d650da399557f513a0c53e9451dae19196ebc32bce059e6b1f88eab140cb7b23f612d650da39a55565b50505050505050565b60008061025c7f513a0c53e9451dae19196ebc32bce059e6b1f88eab140cb7b23f612d650da39a547f513a0c53e9451dae19196ebc32bce059e6b1f88eab140cb7b23f612d650da399549091565b915091509091565b60006102977fec717508ea0d3d9f736b2da60dd18c1864c124710105fae8984f76b69eb3c826546001600160a01b031690565b905090565b60006102977fec717508ea0d3d9f736b2da60dd18c1864c124710105fae8984f76b69eb3c827546001600160a01b031690565b600060143610156102f357604051630f951bd360e01b815260040160405180910390fd5b5060131936013560601c90565b6000806040838503121561031357600080fd5b5050803592602090910135915056fea2646970667358221220fe388f39bfdd3a2ece304edff9b671867374a45e1c092a96484f6197dca399f264736f6c63430008110033","opcodes":"PUSH1 0x80 PUSH1 0x40 MSTORE CALLVALUE DUP1 ISZERO PUSH2 0x10 JUMPI PUSH1 0x0 DUP1 REVERT JUMPDEST POP PUSH2 0x358 DUP1 PUSH2 0x20 PUSH1 0x0 CODECOPY PUSH1 0x0 RETURN INVALID PUSH1 0x80 PUSH1 0x40 MSTORE CALLVALUE DUP1 ISZERO PUSH2 0x10 JUMPI PUSH1 0x0 DUP1 REVERT JUMPDEST POP PUSH1 0x4 CALLDATASIZE LT PUSH2 0x36 JUMPI PUSH1 0x0 CALLDATALOAD PUSH1 0xE0 SHR DUP1 PUSH4 0x32D07DB6 EQ PUSH2 0x3B JUMPI DUP1 PUSH4 0x7BA09759 EQ PUSH2 0x50 JUMPI JUMPDEST PUSH1 0x0 DUP1 REVERT JUMPDEST PUSH2 0x4E PUSH2 0x49 CALLDATASIZE PUSH1 0x4 PUSH2 0x300 JUMP JUMPDEST PUSH2 0x71 JUMP JUMPDEST STOP JUMPDEST PUSH2 0x58 PUSH2 0x20E JUMP JUMPDEST PUSH1 0x40 DUP1 MLOAD SWAP3 DUP4 MSTORE PUSH1 0x20 DUP4 ADD SWAP2 SWAP1 SWAP2 MSTORE ADD PUSH1 0x40 MLOAD DUP1 SWAP2 SUB SWAP1 RETURN JUMPDEST PUSH1 0x0 PUSH2 0x7B PUSH2 0x264 JUMP JUMPDEST SWAP1 POP CALLER PUSH1 0x1 PUSH1 0x1 PUSH1 0xA0 SHL SUB DUP3 AND DUP2 EQ PUSH2 0xBF JUMPI PUSH1 0x40 MLOAD PUSH4 0x69DE1F3F PUSH1 0xE1 SHL DUP2 MSTORE PUSH1 0x1 PUSH1 0x1 PUSH1 0xA0 SHL SUB DUP1 DUP5 AND PUSH1 0x4 DUP4 ADD MSTORE DUP3 AND PUSH1 0x24 DUP3 ADD MSTORE PUSH1 0x44 ADD JUMPDEST PUSH1 0x40 MLOAD DUP1 SWAP2 SUB SWAP1 REVERT JUMPDEST PUSH1 0x0 PUSH2 0xC9 PUSH2 0x29C JUMP JUMPDEST SWAP1 POP PUSH1 0x14 CALLDATASIZE LT ISZERO PUSH2 0xED JUMPI PUSH1 0x40 MLOAD PUSH4 0xF951BD3 PUSH1 0xE0 SHL DUP2 MSTORE PUSH1 0x4 ADD PUSH1 0x40 MLOAD DUP1 SWAP2 SUB SWAP1 REVERT JUMPDEST PUSH1 0x13 NOT CALLDATASIZE ADD CALLDATALOAD PUSH1 0x60 SHR PUSH1 0x1 PUSH1 0x1 PUSH1 0xA0 SHL SUB DUP3 AND DUP2 EQ PUSH2 0x132 JUMPI PUSH1 0x40 MLOAD PUSH4 0x324AC221 PUSH1 0xE0 SHL DUP2 MSTORE PUSH1 0x1 PUSH1 0x1 PUSH1 0xA0 SHL SUB DUP1 DUP5 AND PUSH1 0x4 DUP4 ADD MSTORE DUP3 AND PUSH1 0x24 DUP3 ADD MSTORE PUSH1 0x44 ADD PUSH2 0xB6 JUMP JUMPDEST PUSH1 0x0 PUSH2 0x13C PUSH2 0x2CF JUMP JUMPDEST SWAP1 POP PUSH1 0x0 PUSH2 0x171 PUSH32 0xEC717508EA0D3D9F736B2DA60DD18C1864C124710105FAE8984F76B69EB3C827 SLOAD PUSH1 0x1 PUSH1 0x1 PUSH1 0xA0 SHL SUB AND SWAP1 JUMP JUMPDEST PUSH1 0x1 PUSH1 0x1 PUSH1 0xA0 SHL SUB AND SUB PUSH2 0x1BA JUMPI PUSH32 0xEC717508EA0D3D9F736B2DA60DD18C1864C124710105FAE8984F76B69EB3C827 DUP1 SLOAD PUSH1 0x1 PUSH1 0x1 PUSH1 0xA0 SHL SUB NOT AND PUSH1 0x1 PUSH1 0x1 PUSH1 0xA0 SHL SUB DUP4 AND OR SWAP1 SSTORE JUMPDEST PUSH2 0x205 DUP8 DUP8 PUSH32 0x513A0C53E9451DAE19196EBC32BCE059E6B1F88EAB140CB7B23F612D650DA399 SSTORE PUSH32 0x513A0C53E9451DAE19196EBC32BCE059E6B1F88EAB140CB7B23F612D650DA39A SSTORE JUMP JUMPDEST POP POP POP POP POP POP POP JUMP JUMPDEST PUSH1 0x0 DUP1 PUSH2 0x25C PUSH32 0x513A0C53E9451DAE19196EBC32BCE059E6B1F88EAB140CB7B23F612D650DA39A SLOAD PUSH32 0x513A0C53E9451DAE19196EBC32BCE059E6B1F88EAB140CB7B23F612D650DA399 SLOAD SWAP1 SWAP2 JUMP JUMPDEST SWAP2 POP SWAP2 POP SWAP1 SWAP2 JUMP JUMPDEST PUSH1 0x0 PUSH2 0x297 PUSH32 0xEC717508EA0D3D9F736B2DA60DD18C1864C124710105FAE8984F76B69EB3C826 SLOAD PUSH1 0x1 PUSH1 0x1 PUSH1 0xA0 SHL SUB AND SWAP1 JUMP JUMPDEST SWAP1 POP SWAP1 JUMP JUMPDEST PUSH1 0x0 PUSH2 0x297 PUSH32 0xEC717508EA0D3D9F736B2DA60DD18C1864C124710105FAE8984F76B69EB3C827 SLOAD PUSH1 0x1 PUSH1 0x1 PUSH1 0xA0 SHL SUB AND SWAP1 JUMP JUMPDEST PUSH1 0x0 PUSH1 0x14 CALLDATASIZE LT ISZERO PUSH2 0x2F3 JUMPI PUSH1 0x40 MLOAD PUSH4 0xF951BD3 PUSH1 0xE0 SHL DUP2 MSTORE PUSH1 0x4 ADD PUSH1 0x40 MLOAD DUP1 SWAP2 SUB SWAP1 REVERT JUMPDEST POP PUSH1 0x13 NOT CALLDATASIZE ADD CALLDATALOAD PUSH1 0x60 SHR SWAP1 JUMP JUMPDEST PUSH1 0x0 DUP1 PUSH1 0x40 DUP4 DUP6 SUB SLT ISZERO PUSH2 0x313 JUMPI PUSH1 0x0 DUP1 REVERT JUMPDEST POP POP DUP1 CALLDATALOAD SWAP3 PUSH1 0x20 SWAP1 SWAP2 ADD CALLDATALOAD SWAP2 POP JUMP INVALID LOG2 PUSH5 0x6970667358 0x22 SLT KECCAK256 INVALID CODESIZE DUP16 CODECOPY 0xBF 0xDD GASPRICE 0x2E 0xCE ADDRESS 0x4E 0xDF 0xF9 0xB6 PUSH18 0x867374A45E1C092A96484F6197DCA399F264 PUSH20 0x6F6C634300081100330000000000000000000000 "},"methodIdentifiers":{"callback(int256,uint256)":"32d07db6","viewData()":"7ba09759"}}}}}