{
  "_format": "hh-sol-artifact-1",
  "contractName": "Receiver",
  "sourceName": "contracts/src/example1/receiver/Receiver.sol",
  "abi": [
    {
      "inputs": [
        {
          "internalType": "address",
          "name": "expected",
          "type": "address"
        },
        {
          "internalType": "address",
          "name": "received",
          "type": "address"
        }
      ],
      "name": "SwitchboardCallbackHandler__InvalidFunction",
      "type": "error"
    },
    {
      "inputs": [
        {
          "internalType": "address",
          "name": "expected",
          "type": "address"
        },
        {
          "internalType": "address",
          "name": "received",
          "type": "address"
        }
      ],
      "name": "SwitchboardCallbackHandler__InvalidSender",
      "type": "error"
    },
    {
      "inputs": [],
      "name": "SwitchboardCallbackHandler__MissingFunctionId",
      "type": "error"
    },
    {
      "inputs": [
        {
          "internalType": "int256",
          "name": "data",
          "type": "int256"
        },
        {
          "internalType": "uint256",
          "name": "timestamp",
          "type": "uint256"
        }
      ],
      "name": "callback",
      "outputs": [],
      "stateMutability": "nonpayable",
      "type": "function"
    },
    {
      "inputs": [],
      "name": "viewData",
      "outputs": [
        {
          "internalType": "int256",
          "name": "",
          "type": "int256"
        },
        {
          "internalType": "uint256",
          "name": "",
          "type": "uint256"
        }
      ],
      "stateMutability": "view",
      "type": "function"
    }
  ],
  "bytecode": "0x608060405234801561001057600080fd5b50610358806100206000396000f3fe608060405234801561001057600080fd5b50600436106100365760003560e01c806332d07db61461003b5780637ba0975914610050575b600080fd5b61004e610049366004610300565b610071565b005b61005861020e565b6040805192835260208301919091520160405180910390f35b600061007b610264565b9050336001600160a01b03821681146100bf576040516369de1f3f60e11b81526001600160a01b038084166004830152821660248201526044015b60405180910390fd5b60006100c961029c565b905060143610156100ed57604051630f951bd360e01b815260040160405180910390fd5b60131936013560601c6001600160a01b03821681146101325760405163324ac22160e01b81526001600160a01b038084166004830152821660248201526044016100b6565b600061013c6102cf565b905060006101717fec717508ea0d3d9f736b2da60dd18c1864c124710105fae8984f76b69eb3c827546001600160a01b031690565b6001600160a01b0316036101ba577fec717508ea0d3d9f736b2da60dd18c1864c124710105fae8984f76b69eb3c82780546001600160a01b0319166001600160a01b0383161790555b61020587877f513a0c53e9451dae19196ebc32bce059e6b1f88eab140cb7b23f612d650da399557f513a0c53e9451dae19196ebc32bce059e6b1f88eab140cb7b23f612d650da39a55565b50505050505050565b60008061025c7f513a0c53e9451dae19196ebc32bce059e6b1f88eab140cb7b23f612d650da39a547f513a0c53e9451dae19196ebc32bce059e6b1f88eab140cb7b23f612d650da399549091565b915091509091565b60006102977fec717508ea0d3d9f736b2da60dd18c1864c124710105fae8984f76b69eb3c826546001600160a01b031690565b905090565b60006102977fec717508ea0d3d9f736b2da60dd18c1864c124710105fae8984f76b69eb3c827546001600160a01b031690565b600060143610156102f357604051630f951bd360e01b815260040160405180910390fd5b5060131936013560601c90565b6000806040838503121561031357600080fd5b5050803592602090910135915056fea2646970667358221220fe388f39bfdd3a2ece304edff9b671867374a45e1c092a96484f6197dca399f264736f6c63430008110033",
  "linkReferences": {},
  "deployedLinkReferences": {}
}