{
  "_format": "hh-sol-artifact-1",
  "contractName": "Receiver",
  "sourceName": "contracts/src/example1/receiver/Receiver.sol",
  "abi": [
    {
      "inputs": [
        {
          "internalType": "address",
          "name": "expected",
          "type": "address"
        },
        {
          "internalType": "address",
          "name": "received",
          "type": "address"
        }
      ],
      "name": "InvalidSender",
      "type": "error"
    },
    {
      "inputs": [
        {
          "internalType": "int256",
          "name": "data",
          "type": "int256"
        },
        {
          "internalType": "uint256",
          "name": "timestamp",
          "type": "uint256"
        }
      ],
      "name": "callback",
      "outputs": [],
      "stateMutability": "nonpayable",
      "type": "function"
    },
    {
      "inputs": [],
      "name": "viewData",
      "outputs": [
        {
          "internalType": "int256",
          "name": "",
          "type": "int256"
        },
        {
          "internalType": "uint256",
          "name": "",
          "type": "uint256"
        }
      ],
      "stateMutability": "view",
      "type": "function"
    }
  ],
  "bytecode": "0x608060405234801561001057600080fd5b506102c6806100206000396000f3fe608060405234801561001057600080fd5b50600436106100365760003560e01c806332d07db61461003b5780637ba0975914610050575b600080fd5b61004e61004936600461026e565b610071565b005b61005861017a565b6040805192835260208301919091520160405180910390f35b600061007b6101d0565b90506000610087610240565b6001600160a01b0316036100d0577fec717508ea0d3d9f736b2da60dd18c1864c124710105fae8984f76b69eb3c82780546001600160a01b0319166001600160a01b0383161790555b6100d8610240565b6001600160a01b0316816001600160a01b03161461012a576100f8610240565b60405163708986dd60e11b81526001600160a01b03918216600482015290821660248201526044015b60405180910390fd5b61017583837f513a0c53e9451dae19196ebc32bce059e6b1f88eab140cb7b23f612d650da399557f513a0c53e9451dae19196ebc32bce059e6b1f88eab140cb7b23f612d650da39a55565b505050565b6000806101c87f513a0c53e9451dae19196ebc32bce059e6b1f88eab140cb7b23f612d650da39a547f513a0c53e9451dae19196ebc32bce059e6b1f88eab140cb7b23f612d650da399549091565b915091509091565b3373ee3f48390825f68440745c18d5337a0c6c86b9f4811461022a5760405163708986dd60e11b815273ee3f48390825f68440745c18d5337a0c6c86b9f460048201526001600160a01b0382166024820152604401610121565b6014361061023d575060131936013560601c5b90565b7fec717508ea0d3d9f736b2da60dd18c1864c124710105fae8984f76b69eb3c827546001600160a01b031690565b6000806040838503121561028157600080fd5b5050803592602090910135915056fea26469706673582212201befe81aeefb7a1bc92de1b1c750cd95be47c375cb37a1798ca63161d95a328e64736f6c63430008110033",
  "linkReferences": {},
  "deployedLinkReferences": {}
}